S00E000047656E6975732E73726563AB
S113000071C00000E1C700000C9410080C943D0876
S11300100C946A0887C0000085C0000083C00000FB
S113002081C000007FC000007DC000007BC00000D4
S113003079C0000077C0000075C0000073C00000E4
S113004071C000006FC000006DC000006BC00000F4
S113005069C0000067C0000065C000000C949708E8
S113006061C000005FC000005DC000005BC0000014
S113007059C0000057C0000055C0000053C0000024
S113008051C000004FC000004DC000004BC0000034
S113009049C0000047C0000045C0000043C0000044
S11300A041C000003FC000003DC000003BC0000054
S11300B039C0000037C0000035C0000033C0000064
S11300C031C000002FC000002DC000002BC0000074
S11300D029C0000027C0000025C0000023C0000084
S11300E021C0000011241FBECFEFD1E2DEBFCDBF7F
S11300F000E00CBF12E0A0E0B2E0E0E3F4E100E0D5
S11301000BBF02C007900D92AA39B107D9F723E0BB
S1130110AAE9B2E001C01D92A231B207E1F725D5E8
S11301200C94160A6DCF109269008DB31DBA8FE03E
S11301308DBB089581E01CD28FE39FE10197F1F715
S113014000C0000080E814D28FE391E00197F1F73A
S113015000C000000895CF93DF93CDB7DEB76C974E
S11301600FB6F894DEBF0FBECDBF8BE0E4E0F2E043
S1130170DE01119601900D928A95E1F781E1EFE09D
S1130180F2E0DE011C9601900D928A95E1F7D2DF30
S1130190CE010196BBD180ECEBD18FE391E00197C6
S11301A0F1F700C00000CE010C96B0D16C960FB6EA
S11301B0F894DEBF0FBECDBFDF91CF910895CF93EA
S11301C0DF93CDB7DEB76C970FB6F894DEBF0FBEE2
S11301D0CDBF8BE0E0E2F2E0DE01119601900D92DA
S11301E08A95E1F781E1EBE2F2E0DE011C960190F1
S11301F00D928A95E1F79EDFCE01019687D180ECBE
S1130200B7D18FE391E00197F1F700C00000CE0170
S11302100C967CD16C960FB6F894DEBF0FBECDBFA2
S1130220DF91CF910895FF920F931F93CF93DF93A4
S1130230CDB7DEB768970FB6F894DEBF0FBECDBF5B
S1130240282F8DE0ECE3F2E0DE01119601900D928F
S11302508A95E1F78BE0E9E4F2E0DE011E96019075
S11302600D928A95E1F709E2209F012D1124029550
S11302700F703CE93003C0011124820F911D6AE024
S113028070E0FBD7F62E10E3120F039F100D11241C
S1130290862F880F982F990F990F980F191B4ADFF3
S11302A0CE01019633D180EC63D18FE391E00197C5
S11302B0F1F700C00000CE010E9628D180E3800F34
S11302C014D180E38F0D11D1812F0FD168960FB611
S11302D0F894DEBF0FBECDBFDF91CF911F910F9178
S11302E0FF900895CF93DF93CDB7DEB7A0970FB6F5
S11302F0F894DEBF0FBECDBF8CE0E4E5F2E0DE0192
S1130300119601900D928A95E1F780E293E3A0E0C3
S11303108D879E87AF8785E0E0E6F2E0DE015096A8
S113032001900D928A95E1F785E0E5E6F2E0DE01C1
S1130330559601900D928A95E1F787E0EAE6F2E09E
S1130340DE015A9601900D928A95E1F7F3DECE0113
S11303500196DCD080EC0CD12FEF8FE097E2215096
S113036080409040E1F700C00000CE010D96CED051
S11303702FEF8FE097E2215080409040E1F700C0DA
S11303800000CE014096C2D02FEF8FE097E22150BB
S113039080409040E1F700C00000CE014596B6D001
S11303A02FEF8FE097E2215080409040E1F700C0AA
S11303B00000CE014A96AAD0A0960FB6F894DEBFEC
S11303C00FBECDBFDF91CF910895CF93DF93CDB70B
S11303D0DEB769970FB6F894DEBF0FBECDBF8BE0D2
S11303E0E1E7F2E0DE01119601900D928A95E1F7C2
S11303F08EE0ECE7F2E0DE011C9601900D928A9506
S1130400E1F798DECE01019681D080ECB1D08FE384
S113041091E00197F1F700C00000CE010C9676D070
S113042082ECA6D08FE391E00197F1F700C00000C1
S113043069960FB6F894DEBF0FBECDBFDF91CF91A2
S11304400895CF93DF93CDB7DEB760970FB6F894D6
S1130450DEBF0FBECDBF80E1EAE8F2E0DE01119617
S113046001900D928A95E1F765DECE0101964ED09A
S113047060960FB6F894DEBF0FBECDBFDF91CF916B
S11304800895E2E0F1E090819F7E908388231CF43C
S1130490908190619083E2E0F1E09081977F908376
S11304A086FF03C0908198609083739885FD739A4A
S11304B0A59884FDA59AE2E0F1E080818F7B80839A
S11304C085E08A95F1F7000080818064808395E05F
S11304D09A95F1F7000080818F7B80838FE891E00B
S11304E00197F1F700C000000895CF93C82FE2E010
S11304F0F1E090819062908390819F7B9083C1DF33
S11305008C2F8295807FBDDFCF9108950F931F9329
S1130510CF93DF931F921F92CDB7DEB78C011A825F
S11305201982E981FA81E80FF91F80818823C9F0D3
S1130530E981FA81E00FF11F8081D7DF29813A81B7
S11305402F5F3F4F3A8329838FE391E00197F1F7BF
S113055000C00000E981FA81E00FF11F8081811160
S1130560E7CF0F900F90DF91CF911F910F910895D6
S1130570CF93C82FE2E0F1E090819F7D908390813A
S11305809F7B90837EDF8C2F8295807F7ADFCF9153
S11305900895E1E0F1E0808180618083808188605A
S11305A080836B9A9D9A808180648083808180623D
S11305B080832FEF81EE94E0215080409040E1F75A
S11305C000C00000E2E0F1E080818F7D80838081C3
S11305D08F7B808380E355DF8FE39CE90197F1F7FC
S11305E000C0000080E34DDF8FE193E00197F1F755
S11305F000C0000080E345DF8FE193E00197F1F74D
S113060000C0000088E23DDF8FE391E00197F1F73D
S113061000C0000088E2ACDF8FE391E00197F1F7BE
S113062000C0000088E0A4DF8FE391E00197F1F7B8
S113063000C0000081E09CDF8FE79EE30197F1F7A3
S113064000C0000086E094DF8FE391E00197F1F7AA
S113065000C000008CE08CDF8FE391E00197F1F79C
S113066000C000000895E8E0F1E0808180688083A4
S11306702FEF8DE292E2215080409040E1F700C0DC
S1130680000080818F7780830895E8E0F1E0808125
S1130690806480832FEF8DE292E22150804090406D
S11306A0E1F700C0000080818F7B80830895E8E03B
S11306B0F1E08081806280832FEF8DE292E221500D
S11306C080409040E1F700C0000080818F7D8083EE
S11306D00895E8E0F1E08081806180832FEF8DE26E
S11306E092E2215080409040E1F700C000008081F8
S11306F08F7E8083089580EF80930701089593E0AF
S1130700E8E0F1E080818068808380818064808378
S11307108081806280838081806180832FEF39E6CD
S113072088E1215030408040E1F700C00000808122
S11307308F77808380818F7B808380818F7D80838E
S113074080818F7E80832FEF39E688E1215030400D
S11307508040E1F700C000009150A1F608950F9386
S11307601F93CF93DF93F7DC4CD52FEF39E648E1A5
S1130770215030404040E1F700C00000C2E0D3E027
S113078001E012E013C03DD52FEF32E547E02150E0
S113079030404040E1F700C000008B3222E0920775
S11307A011F4188303C0C29709F40883888188234D
S11307B051F3DF91CF911F910F910895CF92DF9262
S11307C0EF92FF920F931F93CF93DF93FEDD19D522
S11307D02FEF39E648E1215030404040E1F700C0B6
S11307E00000FF24F394C1E4D0E002E013E0EE241F
S11307F0E394D12C0F2EF3E0CF2EF02D88C001D539
S1130800EFEFF2E527E0E150F0402040E1F700C0CF
S11308100000883E33E0930709F479C082339105E0
S113082051F5F110C1E4ED2FF0E0E15FFC4FC0831E
S113083083E48D0F80689CDE8FE391E00197F1F7EC
S113084000C000008C2F51DEEFE3F1E03197F1F7A7
S113085000C00000DF5FD33009F058C0FFEF23ED84
S113086030E3F15020403040E1F700C00000F801CF
S1130870C082FE2C4CC0833C9105F9F48E2DCA3500
S113088009F08D2D811104C0F11002C0CF5F02C0A8
S1130890FD2CC1E483E48D0F80686ADE8FE391E070
S11308A00197F1F700C000008C2F1FDEEFE3F1E0A9
S11308B03197F1F700C000002AC08C37F1E09F07A0
S11308C0F9F48E2DC13409F08D2D811104C0F1107D
S11308D002C0C15002C0FD2CCAE583E48D0F8068BC
S11308E047DE8FE391E00197F1F700C000008C2F01
S11308F0FCDDEFE3F1E03197F1F700C0000007C041
S11309008631934021F4F801108201C0FE2CF801D5
S11309109081923009F473CFDF91CF911F910F91A1
S1130920FF90EF90DF90CF900895EF92FF921F9386
S1130930CF93DF9344DC65D42FEF39E648E12150AF
S113094030404040E1F700C0000083E080930203A0
S1130950C1E0D0E00F2EF2E0EF2EF3E0FF2EF02DF9
S113096013E04FD4EFEFF2E527E0E150F0402040F0
S1130970E1F700C000008B3232E0930721F484E0F9
S11309808093020314C02C2F863143E0940709F0AE
S11309902D2F211106C02C2FC29709F02D2F2223B1
S11309A019F01092020303C0F7011083DACFDF912C
S11309B0CF911F91FF90EF900895CF92DF92EF9225
S11309C0FF920F931F93CF93DF93CDB7DEB7A89712
S11309D00FB6F894DEBF0FBECDBF80919D0223DC1D
S11309E08EDE00E010E061E070E06C0F7D1F600FB0
S11309F0711FC801D4D30C5F1F4F0832110599F73A
S1130A0050919D028E010C5F1F4FF80180E090E031
S1130A10482F9C016081561780F18930B8F4FE019B
S1130A20B89689E0DF0117979C9114969C931397CD
S1130A309C9114969C9313979C9114969C93139752
S1130A409C9190838150FD018413ECCF220F331FBE
S1130A50220F331FE1E0F0E0EC0FFD1FE20FF31F64
S1130A60AFE0B3E08C91808311968C9111978183D0
S1130A7012968C918283538305C0019634968A30F2
S1130A80910531F66E012CE2C20ED11CCE01809587
S1130A909095FC0133977F01B80163507109F80107
S1130AA04081C701800F911F5BD30C5F1F4F0C1552
S1130AB01D0591F7FFEF23ED30E3F1502040304066
S1130AC0E1F700C0000010920203A8960FB6F89454
S1130AD0DEBF0FBECDBFDF91CF911F910F91FF906D
S1130AE0EF90DF90CF9008950F931F93CF93DF93F0
S1130AF000D0CDB7DEB788E589838A838B8349DD4F
S1130B0077D366D310DBF7DD00E010E040E0BE01F0
S1130B106F5F7F4FC80124D30C5F1F4F083211054C
S1130B20A9F70F900F900F90DF91CF911F910F9124
S1130B300895E2E0F3E010828FEA93E092838183E8
S1130B408CE696E0948383838EED93E0968385838D
S1130B5085E994E0908787838FE897E0928781877F
S1130B608DED94E0948783870895BEDFE2DFC2E0D1
S1130B70D3E0E881F0E0EE0FFF1FEE5FFC4F018051
S1130B80F281E02D1995F5CFBF92CF92DF92EF92CB
S1130B90FF920F931F93CF93DF93D62EE72EF82E59
S1130BA0292F39E2939F112D112412951F700CE9FE
S1130BB00103C0011124820F911DEAE0F0E0BF019E
S1130BC05CD3C62E439F312D112432953F7003030D
S1130BD0C0011124840F911DBF014FD3B62EC0E371
S1130BE0C20F109FC00D11249C2D990F892F880FBF
S1130BF0880F890FC81BD0E3D40F309FD00D112468
S1130C00862F880F982F990F990F980FD91B81EC75
S1130C10AFDC8FE391E00197F1F700C0000080E3BF
S1130C208B0D63DC8FE391E00197F1F700C00000C6
S1130C308D2F5BDC8FE391E00197F1F700C000009A
S1130C4086EC96DC8FE391E00197F1F700C0000099
S1130C508D2D4BDC8FE391E00197F1F700C000008C
S1130C608E2D43DC8FE391E00197F1F700C0000083
S1130C708F2D3BDC8FE391E00197F1F700C000007A
S1130C808BEC76DC8FE391E00197F1F700C0000074
S1130C9080E3810F2ADC8FE391E00197F1F700C034
S1130CA0000080E38C0D21DC8FE391E00197F1F7E4
S1130CB000C000008C2F19DC8FE391E00197F1F75D
S1130CC000C00000DF91CF911F910F91FF90EF9032
S1130CD0DF90CF90BF900895AF92BF92CF92DF92F2
S1130CE0EF92FF920F931F93CF93DF93CDB7DEB7AD
S1130CF0A8970FB6F894DEBF0FBECDBFA2DB00E00D
S1130D0010E061E070E06C0F7D1F600F711FC8017F
S1130D1046D225E32A95F1F700000C5F1F4F0832F5
S1130D20110579F769817A818B819C8141E02CDFFF
S1130D3068D28FEF99E6E8E181509040E040E1F716
S1130D4000C0000010E00F2EF2E0CF2EF3E0DF2E03
S1130D50F02D01E0B12C57C054D27C01FFEF22E505
S1130D6087E0F15020408040E1F700C00000802F70
S1130D7093ECE916F10409F08B2D8823C9F0802F38
S1130D80111101C08B2D882399F0AA24AA94A10ED5
S1130D90E1E0F0E0EC0FFD1F24E0A29EE00DF11D68
S1130DA011246081718182819381412FEDDE1A2D9E
S1130DB0802F193008F08B2D8823F1F0802F9CE7C9
S1130DC0E91691E0F90609F08B2D8823A9F0FF2498
S1130DD0F394F10E42E0410FE1E0F0E0EC0FFD1F6F
S1130DE024E0F29EE00DF11D112460817181828165
S1130DF09381CADE1F2D07C086E1E81683E0F8065A
S1130E0011F4F6011082F6018081813009F4A4CF37
S1130E10A8960FB6F894DEBF0FBECDBFDF91CF9179
S1130E201F910F91FF90EF90DF90CF90BF90AF9004
S1130E3008951F93CF93DF9316B58DD2EC018BD217
S1130E4020919D022436D0F4E22FF0E0E256FD4FCB
S1130E50C10FD11D64E670E010D28C0F9D1F83700A
S1130E609078992324F401978C6F9F6F01968F5F7C
S1130E7080832F5F20939D0281E001C080E0DF9199
S1130E80CF911F910895CF9380919D02882309F4F7
S1130E9044C0C0E0EC2FF0E0E256FD4F8081823088
S1130EA0A1F018F4813031F031C08330C9F08430BE
S1130EB011F12CC02FEF8FE097E221508040904039
S1130EC0E1F700C00000CFDB22C02FEF8FE097E2F4
S1130ED0215080409040E1F700C00000D6DB17C0ED
S1130EE02FEF8FE097E2215080409040E1F700C05F
S1130EF00000DDDB0CC02FEF8FE097E22150804033
S1130F009040E1F700C00000E4DB01C0F8DBCF5FF4
S1130F1080919D02C81708F4BDCFCF9108951F9307
S1130F20CF93DF93DFD910929D0210929A0281DF52
S1130F30AADF7894C2E0D3E015E03EC02FEF81EE43
S1130F4094E0215080409040E1F700C0000080917F
S1130F509A02882389F1F89480919C02282F30E02A
S1130F60F901E256FD4F408190919B0249131CC048
S1130F7040919D0250E0415051092417350769F40E
S1130F8058DF811106C0188380919D02815080939F
S1130F909D0279DF10929C0203C08F5F80939C02B4
S1130FA010929A02789408C0188310929C0280913F
S1130FB09D02815080939D028881843009F4BECFC4
S1130FC0DF91CF911F9108951F920F920FB60F9248
S1130FD011240BB60F922F933F934F935F936F930C
S1130FE07F938F939F93AF93BF93EF93FF9381E08E
S1130FF080939A0280939B0236DBFF91EF91BF911D
S1131000AF919F918F917F916F915F914F913F919C
S11310102F910F900BBE0F900FBE0F901F9018953D
S11310201F920F920FB60F9211240BB60F922F93AB
S11310303F934F935F936F937F938F939F93AF935C
S1131040BF93EF93FF9381E080939A0282E08093B1
S11310509B021BDBFF91EF91BF91AF919F918F9109
S11310607F916F915F914F913F912F910F900BBEA4
S11310700F900FBE0F901F9018951F920F920FB6EE
S11310800F9211240BB60F922F933F934F935F93BC
S11310906F937F938F939F93AF93BF93EF93FF933C
S11310A081E080939A0283E080939B0200DBFF91AE
S11310B0EF91BF91AF919F918F917F916F915F91CC
S11310C04F913F912F910F900BBE0F900FBE0F9039
S11310D01F9018951F920F920FB60F9211240BB602
S11310E00F922F933F934F935F936F937F938F93BD
S11310F09F93AF93BF93EF93FF9381E080939A0202
S113110084E080939B02E5DAFF91EF91BF91AF9168
S11311109F918F917F916F915F914F913F912F910B
S11311200F900BBE0F900FBE0F901F9018951F923B
S11311300F920FB60F9211240F900FBE0F901F90B5
S11311401895F999FECF92BD81BD60BDFA9AF99ABE
S11311500895F999FECF92BD81BDF89A80B508959E
S1131160FF920F931F93CF93DF93EC018B01F42E27
S1131170FB016081E6DFF8016181CE010196E1DFC8
S1131180F8016281CE010296DCDF6F2DCE01039659
S1131190D8DFDF91CF911F910F91FF9008950F93A6
S11311A01F93CF93DF938C01EB01D3DF8883C801B6
S11311B00196CFDF8983C8010296CBDF8A83C801F9
S11311C00396C7DF8B83DF91CF911F910F91089511
S11311D0ECE7F0E08FE0808380818064808380810D
S11311E08F7D8083EAE7F0E08081836080830895C7
S11311F014BC81E085BDEEE6F0E0808181608083EF
S11312000895ACE7B0E08C918C93EAE7F0E080813C
S113121080688083808180648083808120917800CD
S11312208091790090E0982F8827820F911D2C914E
S1131230207F2C938233910588F0833C910588F0BC
S11312408C3721E0920780F08B3222E0920778F00D
S11312508631934078F088EE93E0089582E390E03D
S1131260089583EC90E008958CE791E008958BE273
S113127092E0089586E193E0089597FB072E16F413
S1131280009406D077FD08D00BD007FC05D03EF4BF
S1131290909581959F4F0895709561957F4F08951E
S11312A0AA1BBB1B51E107C0AA1FBB1FA617B70788
S11312B010F0A61BB70B881F991F5A95A9F78095A4
S11312C09095BC01CD0108958F929F92AF92BF92E9
S11312D0CF92DF92EF92FF92CF93DF93EC0168817C
S11312E079818A819B81611571058105910521F4BC
S11312F064E279ED8BE597E02DE133EF41E050E0D6
S113130038D049015A019B01AC01A7EAB1E44DD0A0
S11313106B017C01ACEEB4EFA501940152D0DC0169
S1131320CB018C0D9D1DAE1DBF1DB7FF03C00197E2
S1131330A109B04888839983AA83BB839F77DF91EF
S1131340CF91FF90EF90DF90CF90BF90AF909F90A0
S11313508F900895B9CF80E092E0B6CFA0E0B0E0DE
S11313608093000290930102A0930202B0930302BF
S11313700895052E97FB16F400940FD057FD05D061
S113138024D007FC02D046F408C05095409530950F
S113139021953F4F4F4F5F4F0895909580957095DD
S11313A061957F4F8F4F9F4F089531D0A59F900D2A
S11313B0B49F900DA49F800D911D11240895B7FF33
S11313C0F4CFF3DF821B930B0895A1E21A2EAA1B1C
S11313D0BB1BFD010DC0AA1FBB1FEE1FFF1FA217E1
S11313E0B307E407F50720F0A21BB30BE40BF50BDE
S11313F0661F771F881F991F1A9469F76095709567
S1131400809590959B01AC01BD01CF010895A29FE9
S1131410B001B39FC001A39F700D811D1124911DC4
S1131420B29F700D811D1124911D0895F894FFCF72
S1131430010000002020202020204D656E75003C16
S11314402D506C61792052616E6B696E672D3E0080
S11314502020202020506C61793F003C2D59657379
S1131460202020202020204E6F2D3E0020202047C9
S1131470616D65204F76657200202053636F72653D
S1131480202D2000202020202047656E69757300E0
S113149020202032002020203100202020474F210E
S11314A0002020202020204E616D65002020202077
S11314B0202020205B656E645D0052616E6B204EBF
S10D14C0616D652053636F726500CF
S9030000FC
